{
  "_format": "hh-sol-artifact-1",
  "contractName": "CryptoDuck",
  "sourceName": "contracts/CryptoDuck.sol",
  "abi": [
    {
      "inputs": [],
      "stateMutability": "nonpayable",
      "type": "constructor"
    },
    {
      "anonymous": false,
      "inputs": [
        {
          "indexed": true,
          "internalType": "address",
          "name": "owner",
          "type": "address"
        },
        {
          "indexed": true,
          "internalType": "address",
          "name": "approved",
          "type": "address"
        },
        {
          "indexed": true,
          "internalType": "uint256",
          "name": "tokenId",
          "type": "uint256"
        }
      ],
      "name": "Approval",
      "type": "event"
    },
    {
      "anonymous": false,
      "inputs": [
        {
          "indexed": true,
          "internalType": "address",
          "name": "owner",
          "type": "address"
        },
        {
          "indexed": true,
          "internalType": "address",
          "name": "operator",
          "type": "address"
        },
        {
          "indexed": false,
          "internalType": "bool",
          "name": "approved",
          "type": "bool"
        }
      ],
      "name": "ApprovalForAll",
      "type": "event"
    },
    {
      "anonymous": false,
      "inputs": [
        {
          "indexed": false,
          "internalType": "address",
          "name": "sender",
          "type": "address"
        },
        {
          "indexed": false,
          "internalType": "uint256",
          "name": "tokenId",
          "type": "uint256"
        }
      ],
      "name": "NewNFTMinted",
      "type": "event"
    },
    {
      "anonymous": false,
      "inputs": [
        {
          "indexed": true,
          "internalType": "address",
          "name": "from",
          "type": "address"
        },
        {
          "indexed": true,
          "internalType": "address",
          "name": "to",
          "type": "address"
        },
        {
          "indexed": true,
          "internalType": "uint256",
          "name": "tokenId",
          "type": "uint256"
        }
      ],
      "name": "Transfer",
      "type": "event"
    },
    {
      "inputs": [
        {
          "internalType": "address",
          "name": "to",
          "type": "address"
        },
        {
          "internalType": "uint256",
          "name": "tokenId",
          "type": "uint256"
        }
      ],
      "name": "approve",
      "outputs": [],
      "stateMutability": "nonpayable",
      "type": "function"
    },
    {
      "inputs": [
        {
          "internalType": "address",
          "name": "owner",
          "type": "address"
        }
      ],
      "name": "balanceOf",
      "outputs": [
        {
          "internalType": "uint256",
          "name": "",
          "type": "uint256"
        }
      ],
      "stateMutability": "view",
      "type": "function"
    },
    {
      "inputs": [
        {
          "internalType": "uint256",
          "name": "tokenId",
          "type": "uint256"
        }
      ],
      "name": "getApproved",
      "outputs": [
        {
          "internalType": "address",
          "name": "",
          "type": "address"
        }
      ],
      "stateMutability": "view",
      "type": "function"
    },
    {
      "inputs": [
        {
          "internalType": "address",
          "name": "owner",
          "type": "address"
        },
        {
          "internalType": "address",
          "name": "operator",
          "type": "address"
        }
      ],
      "name": "isApprovedForAll",
      "outputs": [
        {
          "internalType": "bool",
          "name": "",
          "type": "bool"
        }
      ],
      "stateMutability": "view",
      "type": "function"
    },
    {
      "inputs": [
        {
          "internalType": "string",
          "name": "srcTokenUri",
          "type": "string"
        }
      ],
      "name": "makeAnEpicNFT",
      "outputs": [],
      "stateMutability": "nonpayable",
      "type": "function"
    },
    {
      "inputs": [],
      "name": "name",
      "outputs": [
        {
          "internalType": "string",
          "name": "",
          "type": "string"
        }
      ],
      "stateMutability": "view",
      "type": "function"
    },
    {
      "inputs": [
        {
          "internalType": "uint256",
          "name": "tokenId",
          "type": "uint256"
        }
      ],
      "name": "ownerOf",
      "outputs": [
        {
          "internalType": "address",
          "name": "",
          "type": "address"
        }
      ],
      "stateMutability": "view",
      "type": "function"
    },
    {
      "inputs": [
        {
          "internalType": "address",
          "name": "from",
          "type": "address"
        },
        {
          "internalType": "address",
          "name": "to",
          "type": "address"
        },
        {
          "internalType": "uint256",
          "name": "tokenId",
          "type": "uint256"
        }
      ],
      "name": "safeTransferFrom",
      "outputs": [],
      "stateMutability": "nonpayable",
      "type": "function"
    },
    {
      "inputs": [
        {
          "internalType": "address",
          "name": "from",
          "type": "address"
        },
        {
          "internalType": "address",
          "name": "to",
          "type": "address"
        },
        {
          "internalType": "uint256",
          "name": "tokenId",
          "type": "uint256"
        },
        {
          "internalType": "bytes",
          "name": "_data",
          "type": "bytes"
        }
      ],
      "name": "safeTransferFrom",
      "outputs": [],
      "stateMutability": "nonpayable",
      "type": "function"
    },
    {
      "inputs": [
        {
          "internalType": "address",
          "name": "operator",
          "type": "address"
        },
        {
          "internalType": "bool",
          "name": "approved",
          "type": "bool"
        }
      ],
      "name": "setApprovalForAll",
      "outputs": [],
      "stateMutability": "nonpayable",
      "type": "function"
    },
    {
      "inputs": [
        {
          "internalType": "bytes4",
          "name": "interfaceId",
          "type": "bytes4"
        }
      ],
      "name": "supportsInterface",
      "outputs": [
        {
          "internalType": "bool",
          "name": "",
          "type": "bool"
        }
      ],
      "stateMutability": "view",
      "type": "function"
    },
    {
      "inputs": [],
      "name": "symbol",
      "outputs": [
        {
          "internalType": "string",
          "name": "",
          "type": "string"
        }
      ],
      "stateMutability": "view",
      "type": "function"
    },
    {
      "inputs": [
        {
          "internalType": "uint256",
          "name": "tokenId",
          "type": "uint256"
        }
      ],
      "name": "tokenURI",
      "outputs": [
        {
          "internalType": "string",
          "name": "",
          "type": "string"
        }
      ],
      "stateMutability": "view",
      "type": "function"
    },
    {
      "inputs": [
        {
          "internalType": "address",
          "name": "from",
          "type": "address"
        },
        {
          "internalType": "address",
          "name": "to",
          "type": "address"
        },
        {
          "internalType": "uint256",
          "name": "tokenId",
          "type": "uint256"
        }
      ],
      "name": "transferFrom",
      "outputs": [],
      "stateMutability": "nonpayable",
      "type": "function"
    }
  ],
  "bytecode": "0x60806040523480156200001157600080fd5b506040518060400160405280600a81526020017f43727970746f4475636b000000000000000000000000000000000000000000008152506040518060400160405280600481526020017f4455434b00000000000000000000000000000000000000000000000000000000815250816000908051906020019062000096929190620001cf565b508060019080519060200190620000af929190620001cf565b505050620000fd6040518060400160405280601e81526020017f54686973206973206d79204e465420636f6e74726163742e20576f61682100008152506200010360201b62000bbc1760201c565b620003ac565b620001a3816040516024016200011a9190620002c0565b6040516020818303038152906040527f41304fac000000000000000000000000000000000000000000000000000000007bffffffffffffffffffffffffffffffffffffffffffffffffffffffff19166020820180517bffffffffffffffffffffffffffffffffffffffffffffffffffffffff8381831617835250505050620001a660201b60201c565b50565b60008151905060006a636f6e736f6c652e6c6f679050602083016000808483855afa5050505050565b828054620001dd9062000336565b90600052602060002090601f0160209004810192826200020157600085556200024d565b82601f106200021c57805160ff19168380011785556200024d565b828001600101855582156200024d579182015b828111156200024c5782518255916020019190600101906200022f565b5b5090506200025c919062000260565b5090565b5b808211156200027b57600081600090555060010162000261565b5090565b60006200028c82620002e4565b620002988185620002ef565b9350620002aa81856020860162000300565b620002b5816200039b565b840191505092915050565b60006020820190508181036000830152620002dc81846200027f565b905092915050565b600081519050919050565b600082825260208201905092915050565b60005b838110156200032057808201518184015260208101905062000303565b8381111562000330576000848401525b50505050565b600060028204905060018216806200034f57607f821691505b602082108114156200036657620003656200036c565b5b50919050565b7f4e487b7100000000000000000000000000000000000000000000000000000000600052602260045260246000fd5b6000601f19601f8301169050919050565b61325680620003bc6000396000f3fe608060405234801561001057600080fd5b50600436106100ea5760003560e01c80636352211e1161008c578063a22cb46511610066578063a22cb4651461025b578063b88d4fde14610277578063c87b56dd14610293578063e985e9c5146102c3576100ea565b80636352211e146101dd57806370a082311461020d57806395d89b411461023d576100ea565b8063095ea7b3116100c8578063095ea7b31461016d57806323b872dd1461018957806339fa8daf146101a557806342842e0e146101c1576100ea565b806301ffc9a7146100ef57806306fdde031461011f578063081812fc1461013d575b600080fd5b6101096004803603810190610104919061201d565b6102f3565b6040516101169190612545565b60405180910390f35b6101276103d5565b6040516101349190612560565b60405180910390f35b610157600480360381019061015291906120b0565b610467565b60405161016491906124b5565b60405180910390f35b61018760048036038101906101829190611fe1565b6104ec565b005b6101a3600480360381019061019e9190611edb565b610604565b005b6101bf60048036038101906101ba919061206f565b610664565b005b6101db60048036038101906101d69190611edb565b610742565b005b6101f760048036038101906101f291906120b0565b610762565b60405161020491906124b5565b60405180910390f35b61022760048036038101906102229190611e76565b610814565b60405161023491906127c0565b60405180910390f35b6102456108cc565b6040516102529190612560565b60405180910390f35b61027560048036038101906102709190611fa5565b61095e565b005b610291600480360381019061028c9190611f2a565b610974565b005b6102ad60048036038101906102a891906120b0565b6109d6565b6040516102ba9190612560565b60405180910390f35b6102dd60048036038101906102d89190611e9f565b610b28565b6040516102ea9190612545565b60405180910390f35b60007f80ac58cd000000000000000000000000000000000000000000000000000000007bffffffffffffffffffffffffffffffffffffffffffffffffffffffff1916827bffffffffffffffffffffffffffffffffffffffffffffffffffffffff191614806103be57507f5b5e139f000000000000000000000000000000000000000000000000000000007bffffffffffffffffffffffffffffffffffffffffffffffffffffffff1916827bffffffffffffffffffffffffffffffffffffffffffffffffffffffff1916145b806103ce57506103cd82610c55565b5b9050919050565b6060600080546103e490612a70565b80601f016020809104026020016040519081016040528092919081815260200182805461041090612a70565b801561045d5780601f106104325761010080835404028352916020019161045d565b820191906000526020600020905b81548152906001019060200180831161044057829003601f168201915b5050505050905090565b600061047282610cbf565b6104b1576040517f08c379a00000000000000000000000000000000000000000000000000000000081526004016104a890612740565b60405180910390fd5b6004600083815260200190815260200160002060009054906101000a900473ffffffffffffffffffffffffffffffffffffffff169050919050565b60006104f782610762565b90508073ffffffffffffffffffffffffffffffffffffffff168373ffffffffffffffffffffffffffffffffffffffff161415610568576040517f08c379a000000000000000000000000000000000000000000000000000000000815260040161055f90612780565b60405180910390fd5b8073ffffffffffffffffffffffffffffffffffffffff16610587610d2b565b73ffffffffffffffffffffffffffffffffffffffff1614806105b657506105b5816105b0610d2b565b610b28565b5b6105f5576040517f08c379a00000000000000000000000000000000000000000000000000000000081526004016105ec90612680565b60405180910390fd5b6105ff8383610d33565b505050565b61061561060f610d2b565b82610dec565b610654576040517f08c379a000000000000000000000000000000000000000000000000000000000815260040161064b906127a0565b60405180910390fd5b61065f838383610eca565b505050565b60006106706007611131565b905061067c338261113f565b60006106a6836040516020016106929190612466565b60405160208183030381529060405261115d565b90506000816040516020016106bb9190612493565b60405160208183030381529060405290506106d6838261131b565b6106f96040518060600160405280602581526020016131bc60259139843361138f565b610703600761142e565b7f1c05098ed1ff38e6238d2b1b04b2c7977d4c94ce651bda6473f9dba8dbf01da0338460405161073492919061251c565b60405180910390a150505050565b61075d83838360405180602001604052806000815250610974565b505050565b6000806002600084815260200190815260200160002060009054906101000a900473ffffffffffffffffffffffffffffffffffffffff169050600073ffffffffffffffffffffffffffffffffffffffff168173ffffffffffffffffffffffffffffffffffffffff16141561080b576040517f08c379a0000000000000000000000000000000000000000000000000000000008152600401610802906126c0565b60405180910390fd5b80915050919050565b60008073ffffffffffffffffffffffffffffffffffffffff168273ffffffffffffffffffffffffffffffffffffffff161415610885576040517f08c379a000000000000000000000000000000000000000000000000000000000815260040161087c906126a0565b60405180910390fd5b600360008373ffffffffffffffffffffffffffffffffffffffff1673ffffffffffffffffffffffffffffffffffffffff168152602001908152602001600020549050919050565b6060600180546108db90612a70565b80601f016020809104026020016040519081016040528092919081815260200182805461090790612a70565b80156109545780601f1061092957610100808354040283529160200191610954565b820191906000526020600020905b81548152906001019060200180831161093757829003601f168201915b5050505050905090565b610970610969610d2b565b8383611444565b5050565b61098561097f610d2b565b83610dec565b6109c4576040517f08c379a00000000000000000000000000000000000000000000000000000000081526004016109bb906127a0565b60405180910390fd5b6109d0848484846115b1565b50505050565b60606109e182610cbf565b610a20576040517f08c379a0000000000000000000000000000000000000000000000000000000008152600401610a1790612720565b60405180910390fd5b6000600660008481526020019081526020016000208054610a4090612a70565b80601f0160208091040260200160405190810160405280929190818152602001828054610a6c90612a70565b8015610ab95780601f10610a8e57610100808354040283529160200191610ab9565b820191906000526020600020905b815481529060010190602001808311610a9c57829003601f168201915b505050505090506000610aca61160d565b9050600081511415610ae0578192505050610b23565b600082511115610b15578082604051602001610afd929190612442565b60405160208183030381529060405292505050610b23565b610b1e84611624565b925050505b919050565b6000600560008473ffffffffffffffffffffffffffffffffffffffff1673ffffffffffffffffffffffffffffffffffffffff16815260200190815260200160002060008373ffffffffffffffffffffffffffffffffffffffff1673ffffffffffffffffffffffffffffffffffffffff16815260200190815260200160002060009054906101000a900460ff16905092915050565b610c5281604051602401610bd09190612560565b6040516020818303038152906040527f41304fac000000000000000000000000000000000000000000000000000000007bffffffffffffffffffffffffffffffffffffffffffffffffffffffff19166020820180517bffffffffffffffffffffffffffffffffffffffffffffffffffffffff83818316178352505050506116cb565b50565b60007f01ffc9a7000000000000000000000000000000000000000000000000000000007bffffffffffffffffffffffffffffffffffffffffffffffffffffffff1916827bffffffffffffffffffffffffffffffffffffffffffffffffffffffff1916149050919050565b60008073ffffffffffffffffffffffffffffffffffffffff166002600084815260200190815260200160002060009054906101000a900473ffffffffffffffffffffffffffffffffffffffff1673ffffffffffffffffffffffffffffffffffffffff1614159050919050565b600033905090565b816004600083815260200190815260200160002060006101000a81548173ffffffffffffffffffffffffffffffffffffffff021916908373ffffffffffffffffffffffffffffffffffffffff160217905550808273ffffffffffffffffffffffffffffffffffffffff16610da683610762565b73ffffffffffffffffffffffffffffffffffffffff167f8c5be1e5ebec7d5bd14f71427d1e84f3dd0314c0f7b2291e5b200ac8c7c3b92560405160405180910390a45050565b6000610df782610cbf565b610e36576040517f08c379a0000000000000000000000000000000000000000000000000000000008152600401610e2d90612660565b60405180910390fd5b6000610e4183610762565b90508073ffffffffffffffffffffffffffffffffffffffff168473ffffffffffffffffffffffffffffffffffffffff161480610eb057508373ffffffffffffffffffffffffffffffffffffffff16610e9884610467565b73ffffffffffffffffffffffffffffffffffffffff16145b80610ec15750610ec08185610b28565b5b91505092915050565b8273ffffffffffffffffffffffffffffffffffffffff16610eea82610762565b73ffffffffffffffffffffffffffffffffffffffff1614610f40576040517f08c379a0000000000000000000000000000000000000000000000000000000008152600401610f37906125e0565b60405180910390fd5b600073ffffffffffffffffffffffffffffffffffffffff168273ffffffffffffffffffffffffffffffffffffffff161415610fb0576040517f08c379a0000000000000000000000000000000000000000000000000000000008152600401610fa790612620565b60405180910390fd5b610fbb8383836116f4565b610fc6600082610d33565b6001600360008573ffffffffffffffffffffffffffffffffffffffff1673ffffffffffffffffffffffffffffffffffffffff16815260200190815260200160002060008282546110169190612986565b925050819055506001600360008473ffffffffffffffffffffffffffffffffffffffff1673ffffffffffffffffffffffffffffffffffffffff168152602001908152602001600020600082825461106d91906128a5565b92505081905550816002600083815260200190815260200160002060006101000a81548173ffffffffffffffffffffffffffffffffffffffff021916908373ffffffffffffffffffffffffffffffffffffffff160217905550808273ffffffffffffffffffffffffffffffffffffffff168473ffffffffffffffffffffffffffffffffffffffff167fddf252ad1be2c89b69c2b068fc378daa952ba7f163c4a11628f55a4df523b3ef60405160405180910390a461112c8383836116f9565b505050565b600081600001549050919050565b6111598282604051806020016040528060008152506116fe565b5050565b606060008251905060008114156111865760405180602001604052806000815250915050611316565b6000600360028361119791906128a5565b6111a191906128fb565b60046111ad919061292c565b905060006020826111be91906128a5565b67ffffffffffffffff8111156111fd577f4e487b7100000000000000000000000000000000000000000000000000000000600052604160045260246000fd5b6040519080825280601f01601f19166020018201604052801561122f5781602001600182028036833780820191505090505b50905060006040518060600160405280604081526020016131e1604091399050600181016020830160005b868110156112d35760038101905062ffffff818a015116603f8160121c168401518060081b905060ff603f83600c1c1686015116810190508060081b905060ff603f8360061c1686015116810190508060081b905060ff603f831686015116810190508060e01b9050808452600484019350505061125a565b5060038606600181146112ed57600281146112fd57611308565b613d3d60f01b6002830352611308565b603d60f81b60018303525b508484525050819450505050505b919050565b61132482610cbf565b611363576040517f08c379a000000000000000000000000000000000000000000000000000000000815260040161135a906126e0565b60405180910390fd5b8060066000848152602001908152602001600020908051906020019061138a929190611c9a565b505050565b6114298383836040516024016113a793929190612582565b6040516020818303038152906040527fe3849f79000000000000000000000000000000000000000000000000000000007bffffffffffffffffffffffffffffffffffffffffffffffffffffffff19166020820180517bffffffffffffffffffffffffffffffffffffffffffffffffffffffff83818316178352505050506116cb565b505050565b6001816000016000828254019250508190555050565b8173ffffffffffffffffffffffffffffffffffffffff168373ffffffffffffffffffffffffffffffffffffffff1614156114b3576040517f08c379a00000000000000000000000000000000000000000000000000000000081526004016114aa90612640565b60405180910390fd5b80600560008573ffffffffffffffffffffffffffffffffffffffff1673ffffffffffffffffffffffffffffffffffffffff16815260200190815260200160002060008473ffffffffffffffffffffffffffffffffffffffff1673ffffffffffffffffffffffffffffffffffffffff16815260200190815260200160002060006101000a81548160ff0219169083151502179055508173ffffffffffffffffffffffffffffffffffffffff168373ffffffffffffffffffffffffffffffffffffffff167f17307eab39ab6107e8899845ad3d59bd9653f200f220920489ca2b5937696c31836040516115a49190612545565b60405180910390a3505050565b6115bc848484610eca565b6115c884848484611759565b611607576040517f08c379a00000000000000000000000000000000000000000000000000000000081526004016115fe906125c0565b60405180910390fd5b50505050565b606060405180602001604052806000815250905090565b606061162f82610cbf565b61166e576040517f08c379a000000000000000000000000000000000000000000000000000000000815260040161166590612760565b60405180910390fd5b600061167861160d565b9050600081511161169857604051806020016040528060008152506116c3565b806116a2846118f0565b6040516020016116b3929190612442565b6040516020818303038152906040525b915050919050565b60008151905060006a636f6e736f6c652e6c6f679050602083016000808483855afa5050505050565b505050565b505050565b6117088383611a9d565b6117156000848484611759565b611754576040517f08c379a000000000000000000000000000000000000000000000000000000000815260040161174b906125c0565b60405180910390fd5b505050565b600061177a8473ffffffffffffffffffffffffffffffffffffffff16611c77565b156118e3578373ffffffffffffffffffffffffffffffffffffffff1663150b7a026117a3610d2b565b8786866040518563ffffffff1660e01b81526004016117c594939291906124d0565b602060405180830381600087803b1580156117df57600080fd5b505af192505050801561181057506040513d601f19601f8201168201806040525081019061180d9190612046565b60015b611893573d8060008114611840576040519150601f19603f3d011682016040523d82523d6000602084013e611845565b606091505b5060008151141561188b576040517f08c379a0000000000000000000000000000000000000000000000000000000008152600401611882906125c0565b60405180910390fd5b805181602001fd5b63150b7a0260e01b7bffffffffffffffffffffffffffffffffffffffffffffffffffffffff1916817bffffffffffffffffffffffffffffffffffffffffffffffffffffffff1916149150506118e8565b600190505b949350505050565b60606000821415611938576040518060400160405280600181526020017f30000000000000000000000000000000000000000000000000000000000000008152509050611a98565b600082905060005b6000821461196a57808061195390612ad3565b915050600a8261196391906128fb565b9150611940565b60008167ffffffffffffffff8111156119ac577f4e487b7100000000000000000000000000000000000000000000000000000000600052604160045260246000fd5b6040519080825280601f01601f1916602001820160405280156119de5781602001600182028036833780820191505090505b5090505b60008514611a91576001826119f79190612986565b9150600a85611a069190612b1c565b6030611a1291906128a5565b60f81b818381518110611a4e577f4e487b7100000000000000000000000000000000000000000000000000000000600052603260045260246000fd5b60200101907effffffffffffffffffffffffffffffffffffffffffffffffffffffffffffff1916908160001a905350600a85611a8a91906128fb565b94506119e2565b8093505050505b919050565b600073ffffffffffffffffffffffffffffffffffffffff168273ffffffffffffffffffffffffffffffffffffffff161415611b0d576040517f08c379a0000000000000000000000000000000000000000000000000000000008152600401611b0490612700565b60405180910390fd5b611b1681610cbf565b15611b56576040517f08c379a0000000000000000000000000000000000000000000000000000000008152600401611b4d90612600565b60405180910390fd5b611b62600083836116f4565b6001600360008473ffffffffffffffffffffffffffffffffffffffff1673ffffffffffffffffffffffffffffffffffffffff1681526020019081526020016000206000828254611bb291906128a5565b92505081905550816002600083815260200190815260200160002060006101000a81548173ffffffffffffffffffffffffffffffffffffffff021916908373ffffffffffffffffffffffffffffffffffffffff160217905550808273ffffffffffffffffffffffffffffffffffffffff16600073ffffffffffffffffffffffffffffffffffffffff167fddf252ad1be2c89b69c2b068fc378daa952ba7f163c4a11628f55a4df523b3ef60405160405180910390a4611c73600083836116f9565b5050565b6000808273ffffffffffffffffffffffffffffffffffffffff163b119050919050565b828054611ca690612a70565b90600052602060002090601f016020900481019282611cc85760008555611d0f565b82601f10611ce157805160ff1916838001178555611d0f565b82800160010185558215611d0f579182015b82811115611d0e578251825591602001919060010190611cf3565b5b509050611d1c9190611d20565b5090565b5b80821115611d39576000816000905550600101611d21565b5090565b6000611d50611d4b84612800565b6127db565b905082815260208101848484011115611d6857600080fd5b611d73848285612a2e565b509392505050565b6000611d8e611d8984612831565b6127db565b905082815260208101848484011115611da657600080fd5b611db1848285612a2e565b509392505050565b600081359050611dc88161315f565b92915050565b600081359050611ddd81613176565b92915050565b600081359050611df28161318d565b92915050565b600081519050611e078161318d565b92915050565b600082601f830112611e1e57600080fd5b8135611e2e848260208601611d3d565b91505092915050565b600082601f830112611e4857600080fd5b8135611e58848260208601611d7b565b91505092915050565b600081359050611e70816131a4565b92915050565b600060208284031215611e8857600080fd5b6000611e9684828501611db9565b91505092915050565b60008060408385031215611eb257600080fd5b6000611ec085828601611db9565b9250506020611ed185828601611db9565b9150509250929050565b600080600060608486031215611ef057600080fd5b6000611efe86828701611db9565b9350506020611f0f86828701611db9565b9250506040611f2086828701611e61565b9150509250925092565b60008060008060808587031215611f4057600080fd5b6000611f4e87828801611db9565b9450506020611f5f87828801611db9565b9350506040611f7087828801611e61565b925050606085013567ffffffffffffffff811115611f8d57600080fd5b611f9987828801611e0d565b91505092959194509250565b60008060408385031215611fb857600080fd5b6000611fc685828601611db9565b9250506020611fd785828601611dce565b9150509250929050565b60008060408385031215611ff457600080fd5b600061200285828601611db9565b925050602061201385828601611e61565b9150509250929050565b60006020828403121561202f57600080fd5b600061203d84828501611de3565b91505092915050565b60006020828403121561205857600080fd5b600061206684828501611df8565b91505092915050565b60006020828403121561208157600080fd5b600082013567ffffffffffffffff81111561209b57600080fd5b6120a784828501611e37565b91505092915050565b6000602082840312156120c257600080fd5b60006120d084828501611e61565b91505092915050565b6120e2816129ba565b82525050565b6120f1816129cc565b82525050565b600061210282612862565b61210c8185612878565b935061211c818560208601612a3d565b61212581612c09565b840191505092915050565b600061213b8261286d565b6121458185612889565b9350612155818560208601612a3d565b61215e81612c09565b840191505092915050565b60006121748261286d565b61217e818561289a565b935061218e818560208601612a3d565b80840191505092915050565b60006121a7603283612889565b91506121b282612c1a565b604082019050919050565b60006121ca604f8361289a565b91506121d582612c69565b604f82019050919050565b60006121ed602583612889565b91506121f882612cde565b604082019050919050565b6000612210601c83612889565b915061221b82612d2d565b602082019050919050565b6000612233602483612889565b915061223e82612d56565b604082019050919050565b6000612256601983612889565b915061226182612da5565b602082019050919050565b6000612279602c83612889565b915061228482612dce565b604082019050919050565b600061229c603883612889565b91506122a782612e1d565b604082019050919050565b60006122bf602a83612889565b91506122ca82612e6c565b604082019050919050565b60006122e2602983612889565b91506122ed82612ebb565b604082019050919050565b6000612305602e83612889565b915061231082612f0a565b604082019050919050565b600061232860028361289a565b915061233382612f59565b600282019050919050565b600061234b602083612889565b915061235682612f82565b602082019050919050565b600061236e603183612889565b915061237982612fab565b604082019050919050565b6000612391602c83612889565b915061239c82612ffa565b604082019050919050565b60006123b4602f83612889565b91506123bf82613049565b604082019050919050565b60006123d7602183612889565b91506123e282613098565b604082019050919050565b60006123fa601d8361289a565b9150612405826130e7565b601d82019050919050565b600061241d603183612889565b915061242882613110565b604082019050919050565b61243c81612a24565b82525050565b600061244e8285612169565b915061245a8284612169565b91508190509392505050565b6000612471826121bd565b915061247d8284612169565b91506124888261231b565b915081905092915050565b600061249e826123ed565b91506124aa8284612169565b915081905092915050565b60006020820190506124ca60008301846120d9565b92915050565b60006080820190506124e560008301876120d9565b6124f260208301866120d9565b6124ff6040830185612433565b818103606083015261251181846120f7565b905095945050505050565b600060408201905061253160008301856120d9565b61253e6020830184612433565b9392505050565b600060208201905061255a60008301846120e8565b92915050565b6000602082019050818103600083015261257a8184612130565b905092915050565b6000606082019050818103600083015261259c8186612130565b90506125ab6020830185612433565b6125b860408301846120d9565b949350505050565b600060208201905081810360008301526125d98161219a565b9050919050565b600060208201905081810360008301526125f9816121e0565b9050919050565b6000602082019050818103600083015261261981612203565b9050919050565b6000602082019050818103600083015261263981612226565b9050919050565b6000602082019050818103600083015261265981612249565b9050919050565b600060208201905081810360008301526126798161226c565b9050919050565b600060208201905081810360008301526126998161228f565b9050919050565b600060208201905081810360008301526126b9816122b2565b9050919050565b600060208201905081810360008301526126d9816122d5565b9050919050565b600060208201905081810360008301526126f9816122f8565b9050919050565b600060208201905081810360008301526127198161233e565b9050919050565b6000602082019050818103600083015261273981612361565b9050919050565b6000602082019050818103600083015261275981612384565b9050919050565b60006020820190508181036000830152612779816123a7565b9050919050565b60006020820190508181036000830152612799816123ca565b9050919050565b600060208201905081810360008301526127b981612410565b9050919050565b60006020820190506127d56000830184612433565b92915050565b60006127e56127f6565b90506127f18282612aa2565b919050565b6000604051905090565b600067ffffffffffffffff82111561281b5761281a612bda565b5b61282482612c09565b9050602081019050919050565b600067ffffffffffffffff82111561284c5761284b612bda565b5b61285582612c09565b9050602081019050919050565b600081519050919050565b600081519050919050565b600082825260208201905092915050565b600082825260208201905092915050565b600081905092915050565b60006128b082612a24565b91506128bb83612a24565b9250827fffffffffffffffffffffffffffffffffffffffffffffffffffffffffffffffff038211156128f0576128ef612b4d565b5b828201905092915050565b600061290682612a24565b915061291183612a24565b92508261292157612920612b7c565b5b828204905092915050565b600061293782612a24565b915061294283612a24565b9250817fffffffffffffffffffffffffffffffffffffffffffffffffffffffffffffffff048311821515161561297b5761297a612b4d565b5b828202905092915050565b600061299182612a24565b915061299c83612a24565b9250828210156129af576129ae612b4d565b5b828203905092915050565b60006129c582612a04565b9050919050565b60008115159050919050565b60007fffffffff0000000000000000000000000000000000000000000000000000000082169050919050565b600073ffffffffffffffffffffffffffffffffffffffff82169050919050565b6000819050919050565b82818337600083830152505050565b60005b83811015612a5b578082015181840152602081019050612a40565b83811115612a6a576000848401525b50505050565b60006002820490506001821680612a8857607f821691505b60208210811415612a9c57612a9b612bab565b5b50919050565b612aab82612c09565b810181811067ffffffffffffffff82111715612aca57612ac9612bda565b5b80604052505050565b6000612ade82612a24565b91507fffffffffffffffffffffffffffffffffffffffffffffffffffffffffffffffff821415612b1157612b10612b4d565b5b600182019050919050565b6000612b2782612a24565b9150612b3283612a24565b925082612b4257612b41612b7c565b5b828206905092915050565b7f4e487b7100000000000000000000000000000000000000000000000000000000600052601160045260246000fd5b7f4e487b7100000000000000000000000000000000000000000000000000000000600052601260045260246000fd5b7f4e487b7100000000000000000000000000000000000000000000000000000000600052602260045260246000fd5b7f4e487b7100000000000000000000000000000000000000000000000000000000600052604160045260246000fd5b6000601f19601f8301169050919050565b7f4552433732313a207472616e7366657220746f206e6f6e20455243373231526560008201527f63656976657220696d706c656d656e7465720000000000000000000000000000602082015250565b7f7b226e616d65223a202243727970746f204475636b222c20226465736372697060008201527f74696f6e223a202241206d61676e69666963656e742063727970746f2064756360208201527f6b2e222c2022696d616765223a20220000000000000000000000000000000000604082015250565b7f4552433732313a207472616e736665722066726f6d20696e636f72726563742060008201527f6f776e6572000000000000000000000000000000000000000000000000000000602082015250565b7f4552433732313a20746f6b656e20616c7265616479206d696e74656400000000600082015250565b7f4552433732313a207472616e7366657220746f20746865207a65726f2061646460008201527f7265737300000000000000000000000000000000000000000000000000000000602082015250565b7f4552433732313a20617070726f766520746f2063616c6c657200000000000000600082015250565b7f4552433732313a206f70657261746f7220717565727920666f72206e6f6e657860008201527f697374656e7420746f6b656e0000000000000000000000000000000000000000602082015250565b7f4552433732313a20617070726f76652063616c6c6572206973206e6f74206f7760008201527f6e6572206e6f7220617070726f76656420666f7220616c6c0000000000000000602082015250565b7f4552433732313a2062616c616e636520717565727920666f7220746865207a6560008201527f726f206164647265737300000000000000000000000000000000000000000000602082015250565b7f4552433732313a206f776e657220717565727920666f72206e6f6e657869737460008201527f656e7420746f6b656e0000000000000000000000000000000000000000000000602082015250565b7f45524337323155524953746f726167653a2055524920736574206f66206e6f6e60008201527f6578697374656e7420746f6b656e000000000000000000000000000000000000602082015250565b7f227d000000000000000000000000000000000000000000000000000000000000600082015250565b7f4552433732313a206d696e7420746f20746865207a65726f2061646472657373600082015250565b7f45524337323155524953746f726167653a2055524920717565727920666f722060008201527f6e6f6e6578697374656e7420746f6b656e000000000000000000000000000000602082015250565b7f4552433732313a20617070726f76656420717565727920666f72206e6f6e657860008201527f697374656e7420746f6b656e0000000000000000000000000000000000000000602082015250565b7f4552433732314d657461646174613a2055524920717565727920666f72206e6f60008201527f6e6578697374656e7420746f6b656e0000000000000000000000000000000000602082015250565b7f4552433732313a20617070726f76616c20746f2063757272656e74206f776e6560008201527f7200000000000000000000000000000000000000000000000000000000000000602082015250565b7f646174613a6170706c69636174696f6e2f6a736f6e3b6261736536342c000000600082015250565b7f4552433732313a207472616e736665722063616c6c6572206973206e6f74206f60008201527f776e6572206e6f7220617070726f766564000000000000000000000000000000602082015250565b613168816129ba565b811461317357600080fd5b50565b61317f816129cc565b811461318a57600080fd5b50565b613196816129d8565b81146131a157600080fd5b50565b6131ad81612a24565b81146131b857600080fd5b5056fe416e204e465420772f20494420257320686173206265656e206d696e74656420746f2025734142434445464748494a4b4c4d4e4f505152535455565758595a6162636465666768696a6b6c6d6e6f707172737475767778797a303132333435363738392b2fa2646970667358221220250106cacd587c3246410f91a4e424273e16cf24974bee9f84cd8f23a7de80b664736f6c63430008010033",
  "linkReferences": {},
  "deployedLinkReferences": {}
}