{
  "_format": "hh-sol-artifact-1",
  "contractName": "CryptoDuck",
  "sourceName": "contracts/CryptoDuck.sol",
  "abi": [
    {
      "inputs": [],
      "stateMutability": "nonpayable",
      "type": "constructor"
    },
    {
      "anonymous": false,
      "inputs": [
        {
          "indexed": true,
          "internalType": "address",
          "name": "owner",
          "type": "address"
        },
        {
          "indexed": true,
          "internalType": "address",
          "name": "approved",
          "type": "address"
        },
        {
          "indexed": true,
          "internalType": "uint256",
          "name": "tokenId",
          "type": "uint256"
        }
      ],
      "name": "Approval",
      "type": "event"
    },
    {
      "anonymous": false,
      "inputs": [
        {
          "indexed": true,
          "internalType": "address",
          "name": "owner",
          "type": "address"
        },
        {
          "indexed": true,
          "internalType": "address",
          "name": "operator",
          "type": "address"
        },
        {
          "indexed": false,
          "internalType": "bool",
          "name": "approved",
          "type": "bool"
        }
      ],
      "name": "ApprovalForAll",
      "type": "event"
    },
    {
      "anonymous": false,
      "inputs": [
        {
          "indexed": true,
          "internalType": "address",
          "name": "from",
          "type": "address"
        },
        {
          "indexed": true,
          "internalType": "address",
          "name": "to",
          "type": "address"
        },
        {
          "indexed": true,
          "internalType": "uint256",
          "name": "tokenId",
          "type": "uint256"
        }
      ],
      "name": "Transfer",
      "type": "event"
    },
    {
      "inputs": [
        {
          "internalType": "address",
          "name": "to",
          "type": "address"
        },
        {
          "internalType": "uint256",
          "name": "tokenId",
          "type": "uint256"
        }
      ],
      "name": "approve",
      "outputs": [],
      "stateMutability": "nonpayable",
      "type": "function"
    },
    {
      "inputs": [
        {
          "internalType": "address",
          "name": "owner",
          "type": "address"
        }
      ],
      "name": "balanceOf",
      "outputs": [
        {
          "internalType": "uint256",
          "name": "",
          "type": "uint256"
        }
      ],
      "stateMutability": "view",
      "type": "function"
    },
    {
      "inputs": [
        {
          "internalType": "uint256",
          "name": "tokenId",
          "type": "uint256"
        }
      ],
      "name": "getApproved",
      "outputs": [
        {
          "internalType": "address",
          "name": "",
          "type": "address"
        }
      ],
      "stateMutability": "view",
      "type": "function"
    },
    {
      "inputs": [
        {
          "internalType": "address",
          "name": "owner",
          "type": "address"
        },
        {
          "internalType": "address",
          "name": "operator",
          "type": "address"
        }
      ],
      "name": "isApprovedForAll",
      "outputs": [
        {
          "internalType": "bool",
          "name": "",
          "type": "bool"
        }
      ],
      "stateMutability": "view",
      "type": "function"
    },
    {
      "inputs": [
        {
          "internalType": "string",
          "name": "srcTokenUri",
          "type": "string"
        }
      ],
      "name": "makeAnEpicNFT",
      "outputs": [],
      "stateMutability": "nonpayable",
      "type": "function"
    },
    {
      "inputs": [],
      "name": "name",
      "outputs": [
        {
          "internalType": "string",
          "name": "",
          "type": "string"
        }
      ],
      "stateMutability": "view",
      "type": "function"
    },
    {
      "inputs": [
        {
          "internalType": "uint256",
          "name": "tokenId",
          "type": "uint256"
        }
      ],
      "name": "ownerOf",
      "outputs": [
        {
          "internalType": "address",
          "name": "",
          "type": "address"
        }
      ],
      "stateMutability": "view",
      "type": "function"
    },
    {
      "inputs": [
        {
          "internalType": "address",
          "name": "from",
          "type": "address"
        },
        {
          "internalType": "address",
          "name": "to",
          "type": "address"
        },
        {
          "internalType": "uint256",
          "name": "tokenId",
          "type": "uint256"
        }
      ],
      "name": "safeTransferFrom",
      "outputs": [],
      "stateMutability": "nonpayable",
      "type": "function"
    },
    {
      "inputs": [
        {
          "internalType": "address",
          "name": "from",
          "type": "address"
        },
        {
          "internalType": "address",
          "name": "to",
          "type": "address"
        },
        {
          "internalType": "uint256",
          "name": "tokenId",
          "type": "uint256"
        },
        {
          "internalType": "bytes",
          "name": "_data",
          "type": "bytes"
        }
      ],
      "name": "safeTransferFrom",
      "outputs": [],
      "stateMutability": "nonpayable",
      "type": "function"
    },
    {
      "inputs": [
        {
          "internalType": "address",
          "name": "operator",
          "type": "address"
        },
        {
          "internalType": "bool",
          "name": "approved",
          "type": "bool"
        }
      ],
      "name": "setApprovalForAll",
      "outputs": [],
      "stateMutability": "nonpayable",
      "type": "function"
    },
    {
      "inputs": [
        {
          "internalType": "bytes4",
          "name": "interfaceId",
          "type": "bytes4"
        }
      ],
      "name": "supportsInterface",
      "outputs": [
        {
          "internalType": "bool",
          "name": "",
          "type": "bool"
        }
      ],
      "stateMutability": "view",
      "type": "function"
    },
    {
      "inputs": [],
      "name": "symbol",
      "outputs": [
        {
          "internalType": "string",
          "name": "",
          "type": "string"
        }
      ],
      "stateMutability": "view",
      "type": "function"
    },
    {
      "inputs": [
        {
          "internalType": "uint256",
          "name": "tokenId",
          "type": "uint256"
        }
      ],
      "name": "tokenURI",
      "outputs": [
        {
          "internalType": "string",
          "name": "",
          "type": "string"
        }
      ],
      "stateMutability": "view",
      "type": "function"
    },
    {
      "inputs": [
        {
          "internalType": "address",
          "name": "from",
          "type": "address"
        },
        {
          "internalType": "address",
          "name": "to",
          "type": "address"
        },
        {
          "internalType": "uint256",
          "name": "tokenId",
          "type": "uint256"
        }
      ],
      "name": "transferFrom",
      "outputs": [],
      "stateMutability": "nonpayable",
      "type": "function"
    }
  ],
  "bytecode": "0x60806040523480156200001157600080fd5b506040518060400160405280600a81526020017f43727970746f4475636b000000000000000000000000000000000000000000008152506040518060400160405280600481526020017f4455434b00000000000000000000000000000000000000000000000000000000815250816000908051906020019062000096929190620001cf565b508060019080519060200190620000af929190620001cf565b505050620000fd6040518060400160405280601e81526020017f54686973206973206d79204e465420636f6e74726163742e20576f61682100008152506200010360201b62000b831760201c565b620003ac565b620001a3816040516024016200011a9190620002c0565b6040516020818303038152906040527f41304fac000000000000000000000000000000000000000000000000000000007bffffffffffffffffffffffffffffffffffffffffffffffffffffffff19166020820180517bffffffffffffffffffffffffffffffffffffffffffffffffffffffff8381831617835250505050620001a660201b60201c565b50565b60008151905060006a636f6e736f6c652e6c6f679050602083016000808483855afa5050505050565b828054620001dd9062000336565b90600052602060002090601f0160209004810192826200020157600085556200024d565b82601f106200021c57805160ff19168380011785556200024d565b828001600101855582156200024d579182015b828111156200024c5782518255916020019190600101906200022f565b5b5090506200025c919062000260565b5090565b5b808211156200027b57600081600090555060010162000261565b5090565b60006200028c82620002e4565b620002988185620002ef565b9350620002aa81856020860162000300565b620002b5816200039b565b840191505092915050565b60006020820190508181036000830152620002dc81846200027f565b905092915050565b600081519050919050565b600082825260208201905092915050565b60005b838110156200032057808201518184015260208101905062000303565b8381111562000330576000848401525b50505050565b600060028204905060018216806200034f57607f821691505b602082108114156200036657620003656200036c565b5b50919050565b7f4e487b7100000000000000000000000000000000000000000000000000000000600052602260045260246000fd5b6000601f19601f8301169050919050565b6130bd80620003bc6000396000f3fe608060405234801561001057600080fd5b50600436106100ea5760003560e01c80636352211e1161008c578063a22cb46511610066578063a22cb4651461025b578063b88d4fde14610277578063c87b56dd14610293578063e985e9c5146102c3576100ea565b80636352211e146101dd57806370a082311461020d57806395d89b411461023d576100ea565b8063095ea7b3116100c8578063095ea7b31461016d57806323b872dd1461018957806339fa8daf146101a557806342842e0e146101c1576100ea565b806301ffc9a7146100ef57806306fdde031461011f578063081812fc1461013d575b600080fd5b61010960048036038101906101049190611fb8565b6102f3565b6040516101169190612918565b60405180910390f35b6101276103d5565b6040516101349190612933565b60405180910390f35b6101576004803603810190610152919061204b565b610467565b60405161016491906128b1565b60405180910390f35b61018760048036038101906101829190611f7c565b6104ec565b005b6101a3600480360381019061019e9190611e76565b610604565b005b6101bf60048036038101906101ba919061200a565b610664565b005b6101db60048036038101906101d69190611e76565b610709565b005b6101f760048036038101906101f2919061204b565b610729565b60405161020491906128b1565b60405180910390f35b61022760048036038101906102229190611e11565b6107db565b6040516102349190612b93565b60405180910390f35b610245610893565b6040516102529190612933565b60405180910390f35b61027560048036038101906102709190611f40565b610925565b005b610291600480360381019061028c9190611ec5565b61093b565b005b6102ad60048036038101906102a8919061204b565b61099d565b6040516102ba9190612933565b60405180910390f35b6102dd60048036038101906102d89190611e3a565b610aef565b6040516102ea9190612918565b60405180910390f35b60007f80ac58cd000000000000000000000000000000000000000000000000000000007bffffffffffffffffffffffffffffffffffffffffffffffffffffffff1916827bffffffffffffffffffffffffffffffffffffffffffffffffffffffff191614806103be57507f5b5e139f000000000000000000000000000000000000000000000000000000007bffffffffffffffffffffffffffffffffffffffffffffffffffffffff1916827bffffffffffffffffffffffffffffffffffffffffffffffffffffffff1916145b806103ce57506103cd82610c1c565b5b9050919050565b6060600080546103e490612e4d565b80601f016020809104026020016040519081016040528092919081815260200182805461041090612e4d565b801561045d5780601f106104325761010080835404028352916020019161045d565b820191906000526020600020905b81548152906001019060200180831161044057829003601f168201915b5050505050905090565b600061047282610c86565b6104b1576040517f08c379a00000000000000000000000000000000000000000000000000000000081526004016104a890612af3565b60405180910390fd5b6004600083815260200190815260200160002060009054906101000a900473ffffffffffffffffffffffffffffffffffffffff169050919050565b60006104f782610729565b90508073ffffffffffffffffffffffffffffffffffffffff168373ffffffffffffffffffffffffffffffffffffffff161415610568576040517f08c379a000000000000000000000000000000000000000000000000000000000815260040161055f90612b53565b60405180910390fd5b8073ffffffffffffffffffffffffffffffffffffffff16610587610cf2565b73ffffffffffffffffffffffffffffffffffffffff1614806105b657506105b5816105b0610cf2565b610aef565b5b6105f5576040517f08c379a00000000000000000000000000000000000000000000000000000000081526004016105ec90612a33565b60405180910390fd5b6105ff8383610cfa565b505050565b61061561060f610cf2565b82610db3565b610654576040517f08c379a000000000000000000000000000000000000000000000000000000000815260040161064b90612b73565b60405180910390fd5b61065f838383610e91565b505050565b600061067060076110ed565b905061067c33826110fb565b60006106a6836040516020016106929190612862565b604051602081830303815290604052611119565b90506000816040516020016106bb919061288f565b60405160208183030381529060405290506106d683826112d7565b6106f960405180606001604052806025815260200161302360259139843361134b565b61070360076113ea565b50505050565b6107248383836040518060200160405280600081525061093b565b505050565b6000806002600084815260200190815260200160002060009054906101000a900473ffffffffffffffffffffffffffffffffffffffff169050600073ffffffffffffffffffffffffffffffffffffffff168173ffffffffffffffffffffffffffffffffffffffff1614156107d2576040517f08c379a00000000000000000000000000000000000000000000000000000000081526004016107c990612a73565b60405180910390fd5b80915050919050565b60008073ffffffffffffffffffffffffffffffffffffffff168273ffffffffffffffffffffffffffffffffffffffff16141561084c576040517f08c379a000000000000000000000000000000000000000000000000000000000815260040161084390612a53565b60405180910390fd5b600360008373ffffffffffffffffffffffffffffffffffffffff1673ffffffffffffffffffffffffffffffffffffffff168152602001908152602001600020549050919050565b6060600180546108a290612e4d565b80601f01602080910402602001604051908101604052809291908181526020018280546108ce90612e4d565b801561091b5780601f106108f05761010080835404028352916020019161091b565b820191906000526020600020905b8154815290600101906020018083116108fe57829003601f168201915b5050505050905090565b610937610930610cf2565b8383611400565b5050565b61094c610946610cf2565b83610db3565b61098b576040517f08c379a000000000000000000000000000000000000000000000000000000000815260040161098290612b73565b60405180910390fd5b6109978484848461156d565b50505050565b60606109a882610c86565b6109e7576040517f08c379a00000000000000000000000000000000000000000000000000000000081526004016109de90612ad3565b60405180910390fd5b6000600660008481526020019081526020016000208054610a0790612e4d565b80601f0160208091040260200160405190810160405280929190818152602001828054610a3390612e4d565b8015610a805780601f10610a5557610100808354040283529160200191610a80565b820191906000526020600020905b815481529060010190602001808311610a6357829003601f168201915b505050505090506000610a916115c9565b9050600081511415610aa7578192505050610aea565b600082511115610adc578082604051602001610ac492919061283e565b60405160208183030381529060405292505050610aea565b610ae5846115e0565b925050505b919050565b6000600560008473ffffffffffffffffffffffffffffffffffffffff1673ffffffffffffffffffffffffffffffffffffffff16815260200190815260200160002060008373ffffffffffffffffffffffffffffffffffffffff1673ffffffffffffffffffffffffffffffffffffffff16815260200190815260200160002060009054906101000a900460ff16905092915050565b610c1981604051602401610b979190612933565b6040516020818303038152906040527f41304fac000000000000000000000000000000000000000000000000000000007bffffffffffffffffffffffffffffffffffffffffffffffffffffffff19166020820180517bffffffffffffffffffffffffffffffffffffffffffffffffffffffff8381831617835250505050611687565b50565b60007f01ffc9a7000000000000000000000000000000000000000000000000000000007bffffffffffffffffffffffffffffffffffffffffffffffffffffffff1916827bffffffffffffffffffffffffffffffffffffffffffffffffffffffff1916149050919050565b60008073ffffffffffffffffffffffffffffffffffffffff166002600084815260200190815260200160002060009054906101000a900473ffffffffffffffffffffffffffffffffffffffff1673ffffffffffffffffffffffffffffffffffffffff1614159050919050565b600033905090565b816004600083815260200190815260200160002060006101000a81548173ffffffffffffffffffffffffffffffffffffffff021916908373ffffffffffffffffffffffffffffffffffffffff160217905550808273ffffffffffffffffffffffffffffffffffffffff16610d6d83610729565b73ffffffffffffffffffffffffffffffffffffffff167f8c5be1e5ebec7d5bd14f71427d1e84f3dd0314c0f7b2291e5b200ac8c7c3b92560405160405180910390a45050565b6000610dbe82610c86565b610dfd576040517f08c379a0000000000000000000000000000000000000000000000000000000008152600401610df490612a13565b60405180910390fd5b6000610e0883610729565b90508073ffffffffffffffffffffffffffffffffffffffff168473ffffffffffffffffffffffffffffffffffffffff161480610e7757508373ffffffffffffffffffffffffffffffffffffffff16610e5f84610467565b73ffffffffffffffffffffffffffffffffffffffff16145b80610e885750610e878185610aef565b5b91505092915050565b8273ffffffffffffffffffffffffffffffffffffffff16610eb182610729565b73ffffffffffffffffffffffffffffffffffffffff1614610f07576040517f08c379a0000000000000000000000000000000000000000000000000000000008152600401610efe90612b13565b60405180910390fd5b600073ffffffffffffffffffffffffffffffffffffffff168273ffffffffffffffffffffffffffffffffffffffff161415610f77576040517f08c379a0000000000000000000000000000000000000000000000000000000008152600401610f6e906129d3565b60405180910390fd5b610f828383836116b0565b610f8d600082610cfa565b6001600360008573ffffffffffffffffffffffffffffffffffffffff1673ffffffffffffffffffffffffffffffffffffffff1681526020019081526020016000206000828254610fdd9190612d63565b925050819055506001600360008473ffffffffffffffffffffffffffffffffffffffff1673ffffffffffffffffffffffffffffffffffffffff16815260200190815260200160002060008282546110349190612c82565b92505081905550816002600083815260200190815260200160002060006101000a81548173ffffffffffffffffffffffffffffffffffffffff021916908373ffffffffffffffffffffffffffffffffffffffff160217905550808273ffffffffffffffffffffffffffffffffffffffff168473ffffffffffffffffffffffffffffffffffffffff167fddf252ad1be2c89b69c2b068fc378daa952ba7f163c4a11628f55a4df523b3ef60405160405180910390a4505050565b600081600001549050919050565b6111158282604051806020016040528060008152506116b5565b5050565b6060600082519050600081141561114257604051806020016040528060008152509150506112d2565b600060036002836111539190612c82565b61115d9190612cd8565b60046111699190612d09565b9050600060208261117a9190612c82565b67ffffffffffffffff8111156111b9577f4e487b7100000000000000000000000000000000000000000000000000000000600052604160045260246000fd5b6040519080825280601f01601f1916602001820160405280156111eb5781602001600182028036833780820191505090505b5090506000604051806060016040528060408152602001613048604091399050600181016020830160005b8681101561128f5760038101905062ffffff818a015116603f8160121c168401518060081b905060ff603f83600c1c1686015116810190508060081b905060ff603f8360061c1686015116810190508060081b905060ff603f831686015116810190508060e01b90508084526004840193505050611216565b5060038606600181146112a957600281146112b9576112c4565b613d3d60f01b60028303526112c4565b603d60f81b60018303525b508484525050819450505050505b919050565b6112e082610c86565b61131f576040517f08c379a000000000000000000000000000000000000000000000000000000000815260040161131690612a93565b60405180910390fd5b80600660008481526020019081526020016000209080519060200190611346929190611c35565b505050565b6113e583838360405160240161136393929190612955565b6040516020818303038152906040527fe3849f79000000000000000000000000000000000000000000000000000000007bffffffffffffffffffffffffffffffffffffffffffffffffffffffff19166020820180517bffffffffffffffffffffffffffffffffffffffffffffffffffffffff8381831617835250505050611687565b505050565b6001816000016000828254019250508190555050565b8173ffffffffffffffffffffffffffffffffffffffff168373ffffffffffffffffffffffffffffffffffffffff16141561146f576040517f08c379a0000000000000000000000000000000000000000000000000000000008152600401611466906129f3565b60405180910390fd5b80600560008573ffffffffffffffffffffffffffffffffffffffff1673ffffffffffffffffffffffffffffffffffffffff16815260200190815260200160002060008473ffffffffffffffffffffffffffffffffffffffff1673ffffffffffffffffffffffffffffffffffffffff16815260200190815260200160002060006101000a81548160ff0219169083151502179055508173ffffffffffffffffffffffffffffffffffffffff168373ffffffffffffffffffffffffffffffffffffffff167f17307eab39ab6107e8899845ad3d59bd9653f200f220920489ca2b5937696c31836040516115609190612918565b60405180910390a3505050565b611578848484610e91565b61158484848484611710565b6115c3576040517f08c379a00000000000000000000000000000000000000000000000000000000081526004016115ba90612993565b60405180910390fd5b50505050565b606060405180602001604052806000815250905090565b60606115eb82610c86565b61162a576040517f08c379a000000000000000000000000000000000000000000000000000000000815260040161162190612b33565b60405180910390fd5b60006116346115c9565b90506000815111611654576040518060200160405280600081525061167f565b8061165e846118a7565b60405160200161166f92919061283e565b6040516020818303038152906040525b915050919050565b60008151905060006a636f6e736f6c652e6c6f679050602083016000808483855afa5050505050565b505050565b6116bf8383611a54565b6116cc6000848484611710565b61170b576040517f08c379a000000000000000000000000000000000000000000000000000000000815260040161170290612993565b60405180910390fd5b505050565b60006117318473ffffffffffffffffffffffffffffffffffffffff16611c22565b1561189a578373ffffffffffffffffffffffffffffffffffffffff1663150b7a0261175a610cf2565b8786866040518563ffffffff1660e01b815260040161177c94939291906128cc565b602060405180830381600087803b15801561179657600080fd5b505af19250505080156117c757506040513d601f19601f820116820180604052508101906117c49190611fe1565b60015b61184a573d80600081146117f7576040519150601f19603f3d011682016040523d82523d6000602084013e6117fc565b606091505b50600081511415611842576040517f08c379a000000000000000000000000000000000000000000000000000000000815260040161183990612993565b60405180910390fd5b805181602001fd5b63150b7a0260e01b7bffffffffffffffffffffffffffffffffffffffffffffffffffffffff1916817bffffffffffffffffffffffffffffffffffffffffffffffffffffffff19161491505061189f565b600190505b949350505050565b606060008214156118ef576040518060400160405280600181526020017f30000000000000000000000000000000000000000000000000000000000000008152509050611a4f565b600082905060005b6000821461192157808061190a90612e7f565b915050600a8261191a9190612cd8565b91506118f7565b60008167ffffffffffffffff811115611963577f4e487b7100000000000000000000000000000000000000000000000000000000600052604160045260246000fd5b6040519080825280601f01601f1916602001820160405280156119955781602001600182028036833780820191505090505b5090505b60008514611a48576001826119ae9190612d63565b9150600a856119bd9190612ec8565b60306119c99190612c82565b60f81b818381518110611a05577f4e487b7100000000000000000000000000000000000000000000000000000000600052603260045260246000fd5b60200101907effffffffffffffffffffffffffffffffffffffffffffffffffffffffffffff1916908160001a905350600a85611a419190612cd8565b9450611999565b8093505050505b919050565b600073ffffffffffffffffffffffffffffffffffffffff168273ffffffffffffffffffffffffffffffffffffffff161415611ac4576040517f08c379a0000000000000000000000000000000000000000000000000000000008152600401611abb90612ab3565b60405180910390fd5b611acd81610c86565b15611b0d576040517f08c379a0000000000000000000000000000000000000000000000000000000008152600401611b04906129b3565b60405180910390fd5b611b19600083836116b0565b6001600360008473ffffffffffffffffffffffffffffffffffffffff1673ffffffffffffffffffffffffffffffffffffffff1681526020019081526020016000206000828254611b699190612c82565b92505081905550816002600083815260200190815260200160002060006101000a81548173ffffffffffffffffffffffffffffffffffffffff021916908373ffffffffffffffffffffffffffffffffffffffff160217905550808273ffffffffffffffffffffffffffffffffffffffff16600073ffffffffffffffffffffffffffffffffffffffff167fddf252ad1be2c89b69c2b068fc378daa952ba7f163c4a11628f55a4df523b3ef60405160405180910390a45050565b600080823b905060008111915050919050565b828054611c4190612e4d565b90600052602060002090601f016020900481019282611c635760008555611caa565b82601f10611c7c57805160ff1916838001178555611caa565b82800160010185558215611caa579182015b82811115611ca9578251825591602001919060010190611c8e565b5b509050611cb79190611cbb565b5090565b5b80821115611cd4576000816000905550600101611cbc565b5090565b6000611ceb611ce684612bdf565b612bae565b905082815260208101848484011115611d0357600080fd5b611d0e848285612e0b565b509392505050565b6000611d29611d2484612c0f565b612bae565b905082815260208101848484011115611d4157600080fd5b611d4c848285612e0b565b509392505050565b600081359050611d6381612fc6565b92915050565b600081359050611d7881612fdd565b92915050565b600081359050611d8d81612ff4565b92915050565b600081519050611da281612ff4565b92915050565b600082601f830112611db957600080fd5b8135611dc9848260208601611cd8565b91505092915050565b600082601f830112611de357600080fd5b8135611df3848260208601611d16565b91505092915050565b600081359050611e0b8161300b565b92915050565b600060208284031215611e2357600080fd5b6000611e3184828501611d54565b91505092915050565b60008060408385031215611e4d57600080fd5b6000611e5b85828601611d54565b9250506020611e6c85828601611d54565b9150509250929050565b600080600060608486031215611e8b57600080fd5b6000611e9986828701611d54565b9350506020611eaa86828701611d54565b9250506040611ebb86828701611dfc565b9150509250925092565b60008060008060808587031215611edb57600080fd5b6000611ee987828801611d54565b9450506020611efa87828801611d54565b9350506040611f0b87828801611dfc565b925050606085013567ffffffffffffffff811115611f2857600080fd5b611f3487828801611da8565b91505092959194509250565b60008060408385031215611f5357600080fd5b6000611f6185828601611d54565b9250506020611f7285828601611d69565b9150509250929050565b60008060408385031215611f8f57600080fd5b6000611f9d85828601611d54565b9250506020611fae85828601611dfc565b9150509250929050565b600060208284031215611fca57600080fd5b6000611fd884828501611d7e565b91505092915050565b600060208284031215611ff357600080fd5b600061200184828501611d93565b91505092915050565b60006020828403121561201c57600080fd5b600082013567ffffffffffffffff81111561203657600080fd5b61204284828501611dd2565b91505092915050565b60006020828403121561205d57600080fd5b600061206b84828501611dfc565b91505092915050565b61207d81612d97565b82525050565b61208c81612da9565b82525050565b600061209d82612c3f565b6120a78185612c55565b93506120b7818560208601612e1a565b6120c081612fb5565b840191505092915050565b60006120d682612c4a565b6120e08185612c66565b93506120f0818560208601612e1a565b6120f981612fb5565b840191505092915050565b600061210f82612c4a565b6121198185612c77565b9350612129818560208601612e1a565b80840191505092915050565b6000612142603283612c66565b91507f4552433732313a207472616e7366657220746f206e6f6e20455243373231526560008301527f63656976657220696d706c656d656e74657200000000000000000000000000006020830152604082019050919050565b60006121a8604f83612c77565b91507f7b226e616d65223a202243727970746f204475636b222c20226465736372697060008301527f74696f6e223a202241206d61676e69666963656e742063727970746f2064756360208301527f6b2e222c2022696d616765223a202200000000000000000000000000000000006040830152604f82019050919050565b6000612234601c83612c66565b91507f4552433732313a20746f6b656e20616c7265616479206d696e746564000000006000830152602082019050919050565b6000612274602483612c66565b91507f4552433732313a207472616e7366657220746f20746865207a65726f2061646460008301527f72657373000000000000000000000000000000000000000000000000000000006020830152604082019050919050565b60006122da601983612c66565b91507f4552433732313a20617070726f766520746f2063616c6c6572000000000000006000830152602082019050919050565b600061231a602c83612c66565b91507f4552433732313a206f70657261746f7220717565727920666f72206e6f6e657860008301527f697374656e7420746f6b656e00000000000000000000000000000000000000006020830152604082019050919050565b6000612380603883612c66565b91507f4552433732313a20617070726f76652063616c6c6572206973206e6f74206f7760008301527f6e6572206e6f7220617070726f76656420666f7220616c6c00000000000000006020830152604082019050919050565b60006123e6602a83612c66565b91507f4552433732313a2062616c616e636520717565727920666f7220746865207a6560008301527f726f2061646472657373000000000000000000000000000000000000000000006020830152604082019050919050565b600061244c602983612c66565b91507f4552433732313a206f776e657220717565727920666f72206e6f6e657869737460008301527f656e7420746f6b656e00000000000000000000000000000000000000000000006020830152604082019050919050565b60006124b2602e83612c66565b91507f45524337323155524953746f726167653a2055524920736574206f66206e6f6e60008301527f6578697374656e7420746f6b656e0000000000000000000000000000000000006020830152604082019050919050565b6000612518600283612c77565b91507f227d0000000000000000000000000000000000000000000000000000000000006000830152600282019050919050565b6000612558602083612c66565b91507f4552433732313a206d696e7420746f20746865207a65726f20616464726573736000830152602082019050919050565b6000612598603183612c66565b91507f45524337323155524953746f726167653a2055524920717565727920666f722060008301527f6e6f6e6578697374656e7420746f6b656e0000000000000000000000000000006020830152604082019050919050565b60006125fe602c83612c66565b91507f4552433732313a20617070726f76656420717565727920666f72206e6f6e657860008301527f697374656e7420746f6b656e00000000000000000000000000000000000000006020830152604082019050919050565b6000612664602983612c66565b91507f4552433732313a207472616e73666572206f6620746f6b656e2074686174206960008301527f73206e6f74206f776e00000000000000000000000000000000000000000000006020830152604082019050919050565b60006126ca602f83612c66565b91507f4552433732314d657461646174613a2055524920717565727920666f72206e6f60008301527f6e6578697374656e7420746f6b656e00000000000000000000000000000000006020830152604082019050919050565b6000612730602183612c66565b91507f4552433732313a20617070726f76616c20746f2063757272656e74206f776e6560008301527f72000000000000000000000000000000000000000000000000000000000000006020830152604082019050919050565b6000612796601d83612c77565b91507f646174613a6170706c69636174696f6e2f6a736f6e3b6261736536342c0000006000830152601d82019050919050565b60006127d6603183612c66565b91507f4552433732313a207472616e736665722063616c6c6572206973206e6f74206f60008301527f776e6572206e6f7220617070726f7665640000000000000000000000000000006020830152604082019050919050565b61283881612e01565b82525050565b600061284a8285612104565b91506128568284612104565b91508190509392505050565b600061286d8261219b565b91506128798284612104565b91506128848261250b565b915081905092915050565b600061289a82612789565b91506128a68284612104565b915081905092915050565b60006020820190506128c66000830184612074565b92915050565b60006080820190506128e16000830187612074565b6128ee6020830186612074565b6128fb604083018561282f565b818103606083015261290d8184612092565b905095945050505050565b600060208201905061292d6000830184612083565b92915050565b6000602082019050818103600083015261294d81846120cb565b905092915050565b6000606082019050818103600083015261296f81866120cb565b905061297e602083018561282f565b61298b6040830184612074565b949350505050565b600060208201905081810360008301526129ac81612135565b9050919050565b600060208201905081810360008301526129cc81612227565b9050919050565b600060208201905081810360008301526129ec81612267565b9050919050565b60006020820190508181036000830152612a0c816122cd565b9050919050565b60006020820190508181036000830152612a2c8161230d565b9050919050565b60006020820190508181036000830152612a4c81612373565b9050919050565b60006020820190508181036000830152612a6c816123d9565b9050919050565b60006020820190508181036000830152612a8c8161243f565b9050919050565b60006020820190508181036000830152612aac816124a5565b9050919050565b60006020820190508181036000830152612acc8161254b565b9050919050565b60006020820190508181036000830152612aec8161258b565b9050919050565b60006020820190508181036000830152612b0c816125f1565b9050919050565b60006020820190508181036000830152612b2c81612657565b9050919050565b60006020820190508181036000830152612b4c816126bd565b9050919050565b60006020820190508181036000830152612b6c81612723565b9050919050565b60006020820190508181036000830152612b8c816127c9565b9050919050565b6000602082019050612ba8600083018461282f565b92915050565b6000604051905081810181811067ffffffffffffffff82111715612bd557612bd4612f86565b5b8060405250919050565b600067ffffffffffffffff821115612bfa57612bf9612f86565b5b601f19601f8301169050602081019050919050565b600067ffffffffffffffff821115612c2a57612c29612f86565b5b601f19601f8301169050602081019050919050565b600081519050919050565b600081519050919050565b600082825260208201905092915050565b600082825260208201905092915050565b600081905092915050565b6000612c8d82612e01565b9150612c9883612e01565b9250827fffffffffffffffffffffffffffffffffffffffffffffffffffffffffffffffff03821115612ccd57612ccc612ef9565b5b828201905092915050565b6000612ce382612e01565b9150612cee83612e01565b925082612cfe57612cfd612f28565b5b828204905092915050565b6000612d1482612e01565b9150612d1f83612e01565b9250817fffffffffffffffffffffffffffffffffffffffffffffffffffffffffffffffff0483118215151615612d5857612d57612ef9565b5b828202905092915050565b6000612d6e82612e01565b9150612d7983612e01565b925082821015612d8c57612d8b612ef9565b5b828203905092915050565b6000612da282612de1565b9050919050565b60008115159050919050565b60007fffffffff0000000000000000000000000000000000000000000000000000000082169050919050565b600073ffffffffffffffffffffffffffffffffffffffff82169050919050565b6000819050919050565b82818337600083830152505050565b60005b83811015612e38578082015181840152602081019050612e1d565b83811115612e47576000848401525b50505050565b60006002820490506001821680612e6557607f821691505b60208210811415612e7957612e78612f57565b5b50919050565b6000612e8a82612e01565b91507fffffffffffffffffffffffffffffffffffffffffffffffffffffffffffffffff821415612ebd57612ebc612ef9565b5b600182019050919050565b6000612ed382612e01565b9150612ede83612e01565b925082612eee57612eed612f28565b5b828206905092915050565b7f4e487b7100000000000000000000000000000000000000000000000000000000600052601160045260246000fd5b7f4e487b7100000000000000000000000000000000000000000000000000000000600052601260045260246000fd5b7f4e487b7100000000000000000000000000000000000000000000000000000000600052602260045260246000fd5b7f4e487b7100000000000000000000000000000000000000000000000000000000600052604160045260246000fd5b6000601f19601f8301169050919050565b612fcf81612d97565b8114612fda57600080fd5b50565b612fe681612da9565b8114612ff157600080fd5b50565b612ffd81612db5565b811461300857600080fd5b50565b61301481612e01565b811461301f57600080fd5b5056fe416e204e465420772f20494420257320686173206265656e206d696e74656420746f2025734142434445464748494a4b4c4d4e4f505152535455565758595a6162636465666768696a6b6c6d6e6f707172737475767778797a303132333435363738392b2fa2646970667358221220d3c3a945e510bb102c62245512a0dd0f91b45d93dd2bf397cbfecd1810a3023664736f6c63430008000033",
  "linkReferences": {},
  "deployedLinkReferences": {}
}